:020000040800F2
:10000000FFFF01201D1E0008D54100087D1E0008CD
:100010007D1E00087D1E00087D1E000800000000F7
:10002000000000000000000000000000D9410008AE
:10003000DD41000800000000E1410008D543000850
:100040007D1E00087D1E00087D1E00087D1E000824
:100050007D1E00087D1E00087D1E00087D1E000814
:100060007D1E00087D1E00087D1E00087D1E000804
:100070007D1E00087D1E00087D1E00087D1E0008F4
:100080007D1E00087D1E00087D1E00087D1E0008E4
:100090007D1E00087D1E00087D1E00087D1E0008D4
:1000A0007D1E00087D1E00087D1E00087D1E0008C4
:1000B0007D1E00087D1E00087D1E00087D1E0008B4
:1000C0007D1E00087D1E00087D1E00087D1E0008A4
:1000D0007D1E00087D1E00087D1E00087D1E000894
:1000E0007D1E00087D1E0008E54100087D1E0008F9
:1000F0007D1E00087D1E00087D1E00087D1E000874
:100100007D1E00087D1E00087D1E00087D1E000863
:100110007D1E00087D1E00087D1E00087D1E000853
:100120007D1E00087D1E00087D1E00087D1E000843
:100130007D1E00087D1E00087D1E00087D1E000833
:100140007D1E00087D1E00087D1E00081542000867
:100150007D1E00087D1E00087D1E00087D1E000813
:100160007D1E00087D1E00087D1E00087D1E000803
:100170007D1E00087D1E00087D1E00087D1E0008F3
:080180007D1E00087D1E000831
:1001880010B5054C237833B9044B13B10448AFF3C9
:1001980000800123237010BD7801002000000000BA
:1001A800A4550008084B10B51BB108490848AFF31F
:1001B80000800848036803B910BD074B002BFBD02B
:1001C800BDE81040184700BF000000007C01002077
:1001D800A4550008780100200000000008B5037A43
:1001E800012B0AD1012904D10188406801F09AFE47
:1001F80008BD0188406801F093FE08BD037A012B11
:1002080010D110B504460188406801F081FE20B184
:100218002188606801F086FE10BD2188606801F0C1
:100228007FFE10BD704700BF037A3BB943681B6966
:1002380002881A4214BF01200020704743685B6996
:1002480002881A4214BF01200020704730B583B0DD
:1002580004460D46684601F051FE23880093052D9B
:1002680036D8DFE805F0030C151E283200238DF878
:10027800043001228DF806208DF8073028E001238C
:100288008DF8043000238DF806308DF807301FE014
:1002980002238DF8043000238DF806308DF80730DE
:1002A80016E002238DF8043001238DF80630002370
:1002B8008DF807300CE002238DF8043001238DF807
:1002C800063000238DF8073002E003238DF8043050
:1002D80003238DF805306946606801F0CDFD25726D
:1002E80001212046FFF77AFF03B030BD10B5028028
:1002F80041601946FFF7AAFF10BD00BF08B50123EA
:10030800FFF7F4FF08BD00BF08B50121FFF766FF3E
:1003180008BD00BF08B50021FFF760FF08BD00BF9A
:10032800012806D14FF6FF73994202D1014A024BC8
:100338001A607047AA322F3F9401002030B4044657
:1003480054F8045B0D602168116082681A6030BC43
:10035800704700BF484000230B2B0CD810F0800FCB
:1003680004D04000C0B280F0070001E04000C0B2F5
:100378000133DBB2F0E7704748400023132B0CD859
:1003880010F0800F04D04000C0B280F0070001E0F8
:100398004000C0B20133DBB2F0E7704710B586B059
:1003A8008DED050ACDED040A8DED031ACDED021A87
:1003B8008DED012A104BA5221A710598C3F8050086
:1003C8000498C3F809000398C3F80D000298C3F80D
:1003D80011000198C3F8150000242046142C06DCEF
:1003E800054B23441979FFF7C7FF0134F6E7024BA1
:1003F800587606B010BD00BF9401002008B504F07F
:1004080013F8074BDB69C01A632807D904F00CF806
:10041800034BD86103F12000FFF7F0FE08BD00BFD1
:100428009401002070B50546254B93F82C30012B1C
:1004380019D013B1022B2CD03EE0A5280DD1204EA7
:10044800002401462046FFF785FF86F82D00346317
:10045800012386F82C30204670BD194A536B0133AE
:100468005363002070BD164C014694F82D00FFF729
:1004780071FF84F82D00236B5A1C22631C4484F8F6
:1004880038500C2A1AD102220D4B83F82C20002058
:1004980070BD0B4B93F82D30984203D1FFF7AEFF98
:1004A800012004E0064A536C013353640020002203
:1004B800034B83F82C2070BD002070BD002070BD58
:1004C80094010020324BD3ED126A9FED326A76EE2A
:1004D800866A9FED317AC6EE877AC3ED137AD3ED3B
:1004E800147ADFED2E6A77EEE67AF1EE677AC7EED8
:1004F800876AC3ED156AD3ED167A77EE867AC7EE6A
:10050800876AC3ED176A93ED137AF7EE007AB4EEB3
:10051800E77AF1EE10FA02DDC3ED137A09E01C4B1D
:10052800D3ED137AF5EEC07AF1EE10FA01D5002278
:10053800DA64174B93ED157AD3ED007AB4EEE77AC7
:10054800F1EE10FA02DDC3ED157A09E0104BD3ED98
:10055800157AF5EEC07AF1EE10FA01D500225A6547
:100568000B4B93ED177AF7EE007AB4EEE77AF1EEDB
:1005780010FA02DDC3ED177A7047054BD3ED177AF1
:10058800F5EEC07AF1EE10FA01D50022DA6570476F
:100598009401002000000000D00F49406666E63E46
:1005A80008B503F041FF074A136EC01A07EE900A18
:1005B800F8EE677ADFED046A86EEA77A82ED197A9B
:1005C80008BD00BF9401002000007A4408B52DED55
:1005D800048BB0EE409AF0EE608AB0EE418AFFF7E5
:1005E800DFFF03F021FF054B186683ED129AC3ED78
:1005F800148A83ED168ABDEC048B08BD9401002093
:1006080000B585B0FFF70EFF68B103AB02AA01A9D8
:100618000648FFF793FE9DED031ADDED020A9DEDF6
:10062800010AFFF7D3FF05B05DF804FBCC010020F9
:1006380030B5B5B003F0FEFE804B1493002317933A
:1006480014A800F085F914AC7D4B9C667D4930A850
:1006580004F028F830A9204600F0B4F9329B1BB109
:10066800032230A9084698477548002380F82C30A3
:1006780000234366C366202273491044FFF73EFEF9
:10068800022405ADB4F1FF3F05D0284600F0C2F9B9
:100698001435013CF6E70024022C11DCA3001819DC
:1006A8004FF4167300934FF416633222674D05EB2F
:1006B800800105AD05EB800000F0AEF90134EBE7F1
:1006C8009FED630A05A800F085FA9FED620A0AA863
:1006D80000F080FA9FED5E0A0FA800F07BFA14A8DC
:1006E80000F0FAF8002800F0938014A800F004F94C
:1006F800FFF786FFFFF7E6FE514B93ED127ADFED29
:10070800567AB4EEE77AF1EE10FA08DD93ED127A34
:10071800DFED527AB4EEE77AF1EE10FA27D4484BBF
:1007280093ED147ADFED4C7AB4EEE77AF1EE10FA35
:1007380008DD93ED147ADFED497AB4EEE77AF1EE4D
:1007480010FA16D43E4B93ED167ADFED437AB4EEE9
:10075800E77AF1EE10FA0EDD93ED167ADFED3F7AC7
:10076800B4EEE77AF1EE10FA07D4002306E001238D
:1007780004E0012302E0002300E00123C3B1304B71
:10078800D3ED147AFCEEE77ACDED037ABDF80C10C0
:100798000AA800F035FA2A4BD3ED167AFCEEE77A70
:1007A800CDED037ABDF80C100FA800F029FA96E7F2
:1007B80003F03AFE224A136FC01A07EE900AF8EEC9
:1007C800677ADFED276A86EEA77A82ED1B7A92EDCB
:1007D800150A0AA800F0FEF9194B93ED170A0FA89D
:1007E80000F0F8F9164C94ED190AD4ED1B0A94EDB3
:1007F800121AD4ED141A94ED162AFFF7CFFD16221B
:10080800211D14A800F046F814A800F085F866E742
:1008180003F00AFE0A4B186761E7329B23B10322F3
:1008280030A908469847FFE7044B1493179B1BB160
:10083800032215A90846984704F027FAC856000865
:10084800940100200906000800040240BC55000875
:100858000000000064AD123E0000FA4300401C4551
:1008680000007A4408B54FF6FF710120FFF758FDE4
:1008780008BD00BF704700BFC3684BB110B5044640
:1008880004300322014698470023E360236110BD2A
:10089800704700BF70B50D46144603F0C5FD064607
:1008A80064B12146284603F011FD241AE4B2054438
:1008B80003F0BAFD06F132039842F1D970BD00BFCA
:1008C80000B583B002A800F8011D012103F0FEFC69
:1008D80003B05DF804FB00BF08B503F02DFD08BDAB
:1008E80008B503F0F9FC08BD08B503F0F5FC0030C5
:1008F80018BF012008BD00BF00B583B001210DF16C
:10090800070003F0FBFC10B19DF8070000E0002091
:1009180003B05DF804FB00BF08B503F0B5FC08BDE3
:1009280010B500F1640401212046FFF78FFC012176
:100938002046FFF753FCC82003F00CFE0021204698
:10094800FFF74CFC04212046FFF780FC10BD00BFD8
:1009580030B583B004460F4D04234FF40062294696
:100968005830FFF7C3FC04234FF48052294604F1A2
:100978006400FFF7BBFC2046FFF7D2FF064B00934D
:10098800064B074A0121074802F0B2F8064B1C60E3
:1009980003B030BD00000240D80000203000002025
:1009A800A4000020D81300202002002008B5044B22
:1009B8001B68DA681AB10146181D03F081FE08BDEC
:1009C8002002002030B587B0041D02AD284603F090
:1009D80087FE95E803008DE8030094E8030085E8A6
:1009E80003009DE8030084E80300049AA3680493C5
:1009F800A260059AE1680591E2601BB1032202A991
:100A080008469847024803F039FC07B030BD00BFDC
:100A1800B5090008704700BF2DE9F0438BB00446C4
:100A28000D46904699460868E0608B8823824A7B89
:100A3800897901F079FA238A089302238DF8243002
:100A48008DF8253000228DF826208DF8273008A94A
:100A5800E06801F011FAAE68484B9E4209D003F5F0
:100A680080639E4207D003F580639E4205D02A2703
:100A780004E0542702E0542700E05427404B1B6849
:100A8800404AA2FB0332520EA26092B219FB02F94D
:100A9800A4F80490129B13FB02F2E28005A801F06F
:100AA800DFFA394B93FBF8F808F1FF330693013F5F
:100AB800ADF814700027ADF81C70ADF8167005A9D4
:100AC800A86801F08FFA684601F0E0FB7023ADF8E2
:100AD80000300123ADF80230ADF80470E388013B23
:100AE80002930223ADF80C304FF48073ADF8103048
:100AF8002B7B0C2B37D8DFE803F007363636133656
:100B080036361F3636362B006946304601F0CEFAA7
:100B18000821304601F0C4FB06F13403236022E0CB
:100B28006946304601F0F8FA0821304601F0C0FB6A
:100B380006F13803236016E06946304601F030FBC1
:100B48000821304601F0BEFB06F13C0323600AE0B1
:100B58006946304601F066FB0821304601F0BAFBD1
:100B680006F1400323600121304601F083FA012198
:100B7800304601F08DFA0BB0BDE8F083004001402B
:100B88000801002029D9426680841E0000B583B080
:100B980002238DF80430038A02A941F8083DC06891
:100BA80001F06AF903B05DF804FB00BF10B582B02C
:100BB800044601238DF80430038A02A941F8083D50
:100BC800C06801F059F9218AE06801F0ABF902B078
:100BD80010BD00BF10B40468C1888288521A07EE9D
:100BE800902AF8EEE77A27EE800AFCEEC07A17EE34
:100BF800903A11FA83F323605DF8044B704700BF05
:100C08000268836803FB01F11160704710F8012B3B
:100C180011F8013B012A28BF9A42F7D0D01A704731
:100C280053B94AB9002908BF00281CBF4FF0FF314B
:100C38004FF0FF3001F0ECB8ADF1080C6DE904CECF
:100C480000F006F8DDF804E0DDE9022304B070479F
:100C58002DE9F0478C460E460446089D002B50D1DE
:100C68008A4217466CD9B2FA82FEBEF1000F0BD049
:100C7800CEF1200420FA04F401FA0EF644EA060C38
:100C880002FA0EF700FA0EF44FEA1749220CBCFBE1
:100C9800F9F01FFA87F809FB10C642EA064600FB7E
:100CA80008F3B34209D9F61900F1FF3280F0228126
:100CB800B34240F21F8102383E44F61AA2B2B6FB94
:100CC800F9F309FB136642EA064403FB08F8A0455A
:100CD80009D9E41903F1FF3280F00A81A04540F2F6
:100CE8000781023B3C44C8EB040443EA004000216E
:100CF800002D62D024FA0EF400232C606B60BDE84E
:100D0800F0878B4207D9002D55D0002185E8410096
:100D18000846BDE8F087B3FA83F1002940F09080D7
:100D2800B34202D3824200F2F880841A66EB0306CB
:100D38000120B446002D40D085E81010BDE8F087AA
:100D480012B90127B7FBF2F7B7FA87FEBEF1000F19
:100D580035D1F31B4FEA17481FFA87FC0121B3FB73
:100D6800F8F0220C08FB103642EA06460CFB00F3AA
:100D7800B34207D9F61900F1FF3202D2B34200F2AA
:100D8800CE801046F61AA2B2B6FBF8F308FB13663B
:100D980042EA06440CFB03FCA44507D9E41903F115
:100DA800FF3202D2A44500F2B5801346CCEB04040E
:100DB80043EA00409CE729462846BDE8F087CEF183
:100DC800200106FA0EF307FA0EF720FA01F94FEAA6
:100DD8001748CE4049EA0309B6FBF8FA4FEA194426
:100DE80008FB1A661FFA87FC44EA06430AFB0CF262
:100DF8009A4200FA0EF40AD9DB190AF1FF3180F0A1
:100E080087809A4240F28480AAF1020A3B449B1AE6
:100E18001FFA89F9B3FBF8F108FB113349EA0343D8
:100E280001FB0CF69E4207D9DB1901F1FF326BD2A8
:100E38009E4269D902393B449B1B41EA0A418EE72D
:100E4800C1F1200E22FA0EF48B40234320FA0EF74C
:100E580006FA01F44FEA134C26FA0EF63C43B6FBA9
:100E6800FCF9270C0CFB19661FFA83F847EA0646BB
:100E780009FB08F7B74202FA01F200FA01FA08D9A9
:100E8800F61809F1FF3041D2B7423FD9A9F102095A
:100E98001E44F61BA0B2B6FBFCF40CFB146640EA39
:100EA800064704FB08F8B84507D9FF1804F1FF30D6
:100EB80028D2B84526D9023C1F4444EA0940C8EB69
:100EC8000707A0FB02894F4544464E4614D329D054
:100ED80065B3BAEB040367EB060707FA0EFECB40CF
:100EE800CF404EEA030385E888000021BDE8F0877B
:100EF8001346F8E61046E0E6B8EB020469EB030691
:100F08000138E5E70446D8E7114695E78146C0E78A
:100F18008A467CE7023B3C4448E708460AE7023831
:100F28003E442FE7C245E7D33E46D1E72946BDE810
:100F3800F08700BF03685A004CBF43F0004323F01A
:100F480000431844704700BF61B32DE9F84F01F121
:100F5800FF3A90460646D146002707EB090404EB02
:100F6800D4746410E50071190846FFF7E3FFA24541
:100F7800834605F10800304409D0FFF7DBFFC3457D
:100F880000F1FF3005D8404509D2671CE5E7C345A5
:100F980005D9A74202D004F1FF39DEE7002108464F
:100FA800BDE8F88F08467047012807D0022807D007
:100FB800044B00280CBF18460020704702487047B1
:100FC80002487047BD160008C1160008C51600087B
:100FD80030B5244B83B004468D1E7BB301A9284647
:100FE800AFF3008020B301992A46FFF7ADFF014611
:100FF800F0B1FFF79FFF4B68A064012B12D0002BC4
:1010080001F1040020DBFFF795FF0023E06423656E
:101018000368002B1CDBFFF78DFF002320611846B7
:1010280003B030BD002323610523184603B030BD4B
:10103800002323610923184603B030BD0A490B4831
:10104800091AC9100191CFE70123E0642365DFE79E
:10105800C3F30360FFF7A8FF0028206114BF002333
:101068000923DCE700000000EC5B0008045A0008D4
:101078000368DA0710B5044606D49B0700F1480058
:1010880009D500F059FC2368590709D51A070ED568
:10109800DB0613D510BD00F047FC23685907F5D4CB
:1010A80004F1D00000F050FC23681A07F0D404F5CE
:1010B800A87000F051FC2368DB06EBD404F5E87057
:1010C800BDE8104000F08CBC03680BB118447047B1
:1010D8001846704709207047704700BF70B504462E
:1010E8000D4608E02B6C63612A46236921460120DE
:1010F8009847082808D1296C2046FFF769FF06465B
:101108000028EFD004F05CF90728FBD13046296CA1
:10111800FFF7E2FF281D00F0FBFB00BF2DE9F047B9
:101128000C1D064617460FCCADF5727D03AD0FC5F5
:101138000FCC0FC50FCC0FC594E80F0002ACD6F842
:101148000C80D6F8189085E80F0000233046216CF3
:101158002360FFF73DFF002F054614BF0A27092724
:101168007DB1A36B47F010018DE81002324663642D
:1011780001203346C04778BB28460DF5727DBDE88F
:10118800F087236C73614FF4F07221467AA804F05B
:101198004DF933697AAA314638469847889B824682
:1011A8008DE8100239466364324633460120C04751
:1011B80090B94FF4F0727AA9204604F037F9BAF1E1
:1011C800080F06D1216C3046FFF702FF09270546B4
:1011D800C6E7BAF1070F04D009200DF5727DBDE806
:1011E800F0872846216CFFF777FF03A800F090FBF3
:1011F800406C7047F0B5CB6B0B640E1D0F46044670
:101208000FCEF9B001AD0FC50FCE0FC50FCE0FC56C
:1012180096E80F004FF0FF3685E80F00009606E0CD
:1012280023696A46214698470828054608D1109937
:101238002046FFF7CDFE0028F2D0092079B0F0BD96
:101248006846FFF715FF062DF7D139462046FFF708
:1012580045FF00BF30B4DD6BC160826119461D6473
:10126800002230BC5AE700BF70B5C66843690B64FA
:1012780026B10122FFF752FF04F0A2F803690A46DB
:1012880004460D46014602209847072807D008283B
:1012980003D129462046FFF721FF04F091F8304694
:1012A800296CFFF719FF281D00F032FBC2681AB13C
:1012B800CA6B0A64002231E79CE700BF704700BF91
:1012C800836813B1014601201847704700B5042907
:1012D80007D8DFE801F00309060909000BB90F2A4E
:1012E80005D902205DF804FB01205DF804FB00EB42
:1012F800820218465368019A13605DF804FB00BF28
:1013080010B584B0002303AC0A4600941946FFF7D1
:10131800DDFF039804B010BD00B5042907D8DFE845
:1013280001F00309060909000BB90F2A05D90220A3
:101338005DF804FB01205DF804FB019900EB8202D3
:101348000968516018465DF804FB00BF10B584B009
:1013580004AC002344F8042D0A4600941946FFF70C
:10136800DBFF04B010BD00BFF0B5D36B1364151DCF
:1013780007460E460FCDADF50F7D17AC0FC40FCD48
:101388000FC40FCD0FC495E80F004FF0FF3584E868
:101398000F00169510E016A8FFF7D8FF314616A8DB
:1013A800B84716AA694678B9049B082098470528C3
:1013B80004460AD0092807D026996846FFF708FE90
:1013C8006A460C210028E6D0092416A8FFF750FE2B
:1013D80020460DF50F7DF0BD2DE9F04F0D46C96C87
:1013E8008BB00C1D096807919146089400F0030B17
:1013F8001E46002B64D10902032307918DF825604E
:101408008DF824302B6DBBF1020F08BFAC6B13F0C5
:10141800010343D100F00800C2B203920193276888
:10142800002F3DD0022E47D02788B4F8028004341C
:10143800AB6C28F0010A0F2148469A44FFF760FF79
:10144800824537D827F001039A4450452CBF002025
:1014580001204FEA480808F0020807F0010748EAA7
:101468000708B8F1010F41D038D3B8F1020F1DD1E8
:10147800236823F000420292BBF1000F79D130B10A
:101488000399002900F08180002A00F0A880002B31
:1014980079DB029B013304EB8304C0E7002301934B
:1014A800022E40DDFFF716FE002842D009200BB0BF
:1014B800BDE8F08F0020CCE7D4F804800834B7E703
:1014C800022B9FDC0B0CDAB209048DF825300223BD
:1014D80004EB820407918DF8243093E7BBF1000FE9
:1014E80002D0002840F0B080043498E7BBF1000F28
:1014F80026D1B0B194E80C00991C4FEAD272D5D02D
:1015080005F158010133069100F09480201DFFF782
:10151800DBFD06AB0146284603F0DAFB002840F065
:10152800B88008347BE707A9484600F0F3FA00289A
:10153800BCD1019B002B5CD108200BB0BDE8F08F1B
:101548000D2148462F6AFFF7DBFE8742E9D1AB6AD7
:101558009C42E6D12046FFF7EDFC0F2102464846A3
:10156800FFF7F4FE48462A460021FFF7EFFE072062
:101578009DE70D2148462F6AFFF7C2FE874248D0F3
:101588002368002B85DA043483E7029B3BB305F11B
:101598005803271DCDF810B0DDF80C80DDF808A041
:1015A8000596A3461C4602E0B245B04616D038461A
:1015B8000694FFF789FD06AB01460022284603F092
:1015C80087FB08F1010604370028EDD0029B059E31
:1015D80043455C46DDF810B0D2D100E05C46484691
:1015E8000D21FFF78DFE069B2862AC626B62062018
:1015F8005DE70F214846FFF783FE0E210246484665
:10160800FFF7A4FE48462A4A0F21FFF79FFE07204E
:101618004DE7AB6A9C42B3D104220027A318029974
:10162800A962EF622A636B632368BB421FDB012355
:1016380001932EE748460D21FFF762FE2862069BBC
:101648006B62AC62062032E72046FFF773FC043475
:101658000646AC63284603F099FB00283FF426AF02
:10166800484632460F21FFF771FE07201FE708465C
:10167800013004EB8000FFF75DFC0F21024648466D
:10168800FFF764FE48462A463946FFF75FFE072003
:101698000DE707460D214846FFF732FE022F286264
:1016A800CDD12B46069A43F82C2F6B62C9E700BFB1
:1016B8005F4E000800238FE601238DE602238BE6A8
:1016C800F0B50446C5B004290DD8DFE801F057038A
:1016D8000C310F00012B4FEA124695B266D17219F0
:1016E800102A40F29F80022045B0F0BD002BFAD1AD
:1016F800102AF8D82368D80600F1C98022AE3046EF
:10170800019200F077F9A06B019A0023012505FAF0
:1017180003F1114203D0016846F823100430013365
:10172800042BF4D1A063304600F05AF90020DBE71F
:10173800032BD8D1150C97B2EB19102BD3D82368EB
:101748001E0700F1B88022AE30467F0000F026F96F
:1017580006EBC5027B1EA56B57B1043A294651F822
:10176800040B42F8040F013B581CF8D105EB870520
:101778003046A56300F0F0F80020B5E7002BB2D1A1
:10178800A56B97B2201D012606FA03F1394203F131
:10179800010302D0296801600435102B00F1040010
:1017A800F2D112F400503BD1A5639DE7052B9AD1E5
:1017B8007719202F97D80F2E65D92F46002D48D19D
:1017C8002A460027002AA06B71DD00EBC202014601
:1017D80044A800EBC6008C3851F8045B40F8045F5D
:1017E8009142F9D1084697B1102E324644A938BF24
:1017F800102201EBC202A2F5C4727900043A00EB90
:10180800810150F8045B42F8045F8142F9D1012B51
:1018180047D00F2EA16332D917B102A800F094F86F
:10182800002061E70F2E3FF65EAF00272268D10740
:101838000DD522F00101052B21600193204652D0DD
:1018480022F0030240F8482B00F072F8019B002FA9
:1018580051D02268510736D4012B3ED00F2E06D81E
:1018680022A8019300F06CF8019B002FA8D002A8D1
:10187800019300F06DF8019BC6F11002A2E722A8BF
:1018880000F05AF8C8E7102FCFD9103FCEE723F061
:101898001003236004F5E870019200F0ABF8019A98
:1018A8002CE70431A16322A800F03EF8B8E7002F26
:1018B8009AD10146ABE723F00803236004F5A8702A
:1018C80000F06CF83FE7204622F0040240F8D02BE5
:1018D800019300F03DF8019BBEE722A8019300F0B8
:1018E80027F8019BC8E741F0020140F8481B00F0C7
:1018F80027F8019BABE7012B03D00F2E3FF660AF13
:10190800AEE722A8019300F013F8019B58E700BF47
:1019180000F1340191E838009C46A6464CF8045D75
:1019280090E8FF0FE54600BD90EC210B704700BF23
:1019380080EC210B704700BF90EC200B704700BF74
:1019480080EC200B704700BFD0EC200B704700BF25
:10195800C0EC200B704700BFF0EC0201F0EC021164
:10196800F0EC0221F0EC0231F0EC0241F0EC025113
:10197800F0EC0261F0EC0271F0EC0281F0EC029103
:10198800F0EC02A1F0EC02B1F0EC02C1F0EC02D1F3
:10199800F0EC02E1F0EC02F1704700BFE0EC02016C
:1019A800E0EC0211E0EC0221E0EC0231E0EC024153
:1019B800E0EC0251E0EC0261E0EC0271E0EC028143
:1019C800E0EC0291E0EC02A1E0EC02B1E0EC02C133
:1019D800E0EC02D1E0EC02E1E0EC02F1704700BF7C
:1019E800B0FC0181B0FC0191B0FC01A1B0FC01B1D7
:1019F800704700BFA0FC0181A0FC0191A0FC01A1DF
:101A0800A0FC01B1704700BFEC4600B52DE90050BD
:101A18002DE9FF1F4FF000032DE90C0001A9FFF786
:101A2800E9FBDDF840E012B0704700BFEC4600B5B6
:101A38002DE900502DE9FF1F4FF000032DE90C00A0
:101A480001A9FFF711FCDDF840E012B0704700BFB4
:101A5800EC4600B52DE900502DE9FF1F4FF00003BB
:101A68002DE90C0001A9FFF721FCDDF840E012B0D8
:101A7800704700BFEC4600B52DE900502DE9FF1F67
:101A88004FF000032DE90C0001ABFFF7E3FBDDF895
:101A980040E012B0704700BFEC4600B52DE9005099
:101AA8002DE9FF1F4FF000032DE90C0001AAFFF7F5
:101AB8005BFCDDF840E012B0704700BF037A1BB949
:101AC800437A43B9B02070475A1E036802721A025B
:101AD8000260180E70474268013B10B443721368E5
:101AE8000321141D01721A02446002605DF8044B60
:101AF800180E704700B585B003AA00230092194656
:101B08000C22FFF7E3FB039805B05DF804FB00BF68
:101B1800F0E700BF2DE9F043064685B00D464FF0CB
:101B280000082846FFF7CAFFB028044600F0B48032
:101B380020F07F0313F0FF0320D000F0F003802B88
:101B48007AD0902B35D0A02B48D0B02B5CD0C02BAE
:101B580000F0898000F0F803D02B0BD100F00702C9
:101B6800013242F40022052301213046FFF7A8FD87
:101B78000028D6D0092005B0BDE8F0830DF10C0986
:101B880019468700CDF800900D223046FFF79EFBDE
:101B9800FFB2039BCDF80090043760064CBFDF1BF3
:101BA800FF18002319460D2230460397FFF7B4FBB0
:101BB800B7E700F00D030D2BDCD003AF002300F0D6
:101BC8000F02194600973046FFF780FB0023009765
:101BD80019460D223046FFF79FFBA2E7C2434FF498
:101BE8007F6302F0070243FA02F2010702EA0302E6
:101BF8004FF0000348BF42F4804219463046FFF7D1
:101C08005FFD0028B6D18CE7B1284AD0B22853D05E
:101C1800B32800F0818000F0FC03B42BAAD000F0B8
:101C280007020132012342F4002219463046FFF729
:101C380047FD00289ED174E72846FFF73FFF24029E
:101C48002043B0F5004F95D004010023A2B21946F5
:101C58003046FFF735FD00288CD114F4004F18BF2B
:101C68004FF001085DE7C62862D0C7286CD000F0A5
:101C7800F803C02B7BD0C82800F09180C9287FF4D6
:101C880079AF2846FFF71AFF020300F00F0002F4AD
:101C980070220130024366E7B8F1000F6ED00020D1
:101CA80069E72846FFF70AFF024600283FF462AFBB
:101CB80010F0F003B9D05DE700230DF10C090D22F7
:101CC8001946CDF800903046FFF700FB2846FFF78D
:101CD800F5FE02064FF002040CD5039B00F07F00CE
:101CE800A040034428460393FFF7E8FE030604F1E7
:101CF8000704F2D4039BCDF8009000F07F0000FAAF
:101D080004F203F501740023144419460D223046E9
:101D18000394FFF701FB04E72846FFF7CFFE010312
:101D280000F00F0001F47021421C01230A437CE7F4
:101D38002846FFF7C3FE010300F00F0001F47021ED
:101D4800421C03230A4370E72846FFF7B7FE024602
:101D580000283FF40FAF10F0F0037FF40BAF04211D
:101D68003046FFF7ADFC00287FF404AFD9E600F059
:101D78000F020132032342F4202256E703AC434604
:101D88000E22414600943046FFF7A0FA00943046F0
:101D980043460F224146FFF7BFFA4046EBE6284686
:101DA800FFF78CFE00F0F00200F00F031032013351
:101DB80043EA0232D7E600BF10B5C36C84B05A6854
:101DC80003208DF80C00DC798DF80D4012020833E1
:101DD800084601A901920293FFF79CFE04B010BDCA
:101DE80008B5FFF795FE806C08BD00BF08B5FFF782
:101DF8008FFEC36CD87903EB8000083008BD00BFA4
:101E080008B503F0DDFA00BF08B5FFF7F9FF00BF1A
:101E1800704700BF002103E00F4B5B58435004316B
:101E28000E480F4B42189A42F6D30E4A02E000239E
:101E380042F8043B0C4B9A42F9D30C4A02E00023C7
:101E4800136004320A4B9A42F9D302F0F1FB03F013
:101E5800BFFAFEF7EDFB7047085C000800000020A1
:101E68007801002078010020D81900200000001017
:101E780000000010FEE7000070B400233AE00122E1
:101E88009A400C68A24334D104685D000322AA403A
:101E9800D2431440046006680C79AC4034430460B3
:101EA8000C79013CE4B2012C15D884682240826088
:101EB80084684A79AA402243826046689AB201241B
:101EC800944026EA0404446046688C7904FA02F2D5
:101ED80092B232434260C4689AB256000322B240BA
:101EE80024EA0202C260C668CC7904FA05F23243D9
:101EF800C26001330F2BC2D970BC70474FF6FF7315
:101F080003600023037143718371C371704700BF7D
:101F18004369194201D0012070470020704700BF73
:101F2800018370474183704730B401F007039B0079
:101F38009A40C908083150F821400F2505FA03F3E3
:101F480024EA030340F8213050F821301A4340F8BE
:101F5800212030BC704700BF21B1054B1A6B1043DC
:101F680018637047024A136B23EA00001063704736
:101F78000038024021B1054B5A6B10435863704733
:101F8800024A536B23EA000050637047003802404E
:101F980021B1054B1A6C104318647047024A136C40
:101FA80023EA0000106470470038024021B1054B55
:101FB8005A6C104358647047024A536C23EA000075
:101FC800506470470038024021B1054B1A6A10432B
:101FD80018627047024A136A23EA000010627047C9
:101FE8000038024003889BB21B4A904212D002F587
:101FF800806290420ED0B0F1804F0BD0A2F58032B3
:10200800904207D002F58062904203D002F58062C8
:10201800904203D123F070034A8813430F4A904239
:1020280008D002F58062904204D023F440739BB23A
:102038000A89134303804B68C3620B880385064BE8
:10204800984203D003F58063984201D18B7A0386C6
:1020580001238382704700BF000001400010004048
:102068004FF0FF3343600023038003814380837272
:10207800704700BF29B103889BB243F080030380F7
:10208800704703889BB223F080039BB2038070479C
:1020980029B103889BB243F001030380704703888A
:1020A8009BB223F001039BB20380704730B4038CCA
:1020B8009BB223F001039BB20384038C9BB28588F7
:1020C800ADB2028B92B222F073020C88224323F045
:1020D80002038C8923434C8823430E4CA04203D02F
:1020E80004F58064A0420DD123F00803CC89234372
:1020F80023F004048B88234325F440750C8A254378
:102108004C8A2543858002838A684263038430BCF5
:10211800704700BF0000014030B4038C9BB223F02D
:1021280010039BB20384028C92B28588ADB2048BF3
:10213800A4B224F4E6440B881B029BB21C4322F091
:1021480020028B891B019BB21A434B881B019BB24F
:102158001343124A904203D002F58062904215D18F
:1021680023F08003CA89120192B2134323F040027C
:102178008B881B019BB2134325F440650A8A9200A1
:1021880092B22A434D8AAD00ADB2154385800483CF
:102198008A688263038430BC704700BF0000014036
:1021A80030B4038C9BB223F480739BB20384028CFB
:1021B80092B28488A4B2838B9BB223F073030D88F8
:1021C8001D4322F400728B891B029BB21A434B8871
:1021D8001B029BB21343124A904203D002F580625D
:1021E800904215D123F40063CA89120292B21343B4
:1021F80023F480628B881B029BB2134324F440545F
:102208000A8A120192B222434C8A2401A4B21443CE
:10221800848085838A68C263038430BC704700BFAA
:102228000000014030B4038C9BB223F480539BB26E
:102238000384048CA4B28588ADB2828B92B222F456
:10224800E6420B881B029BB21A4324F400548B8984
:102258001B039BB21C434B881B039BB223430A4CB2
:10226800A04203D004F58064A04205D125F480453E
:102278000C8AA401A4B22543858082838A680264FB
:10228800038430BC704700BF000001400023038076
:102298004380838083608381C38103824382704744
:1022A800038B9BB223F0080319430183704700BFD7
:1022B800038B9BB223F40063090289B2194301839B
:1022C800704700BF838B9BB223F0080319438183B7
:1022D800704700BF838B9BB223F40063090289B265
:1022E80019438183704700BF014B5861704700BF95
:1022F800003C014040F0BF6040F40030014BD86022
:10230800704700BF00ED00E0C3780BB310B4184B62
:10231800DA68D243C2F30222C2F10401CCB20F231D
:1023280013414178A140C9B2827813400B431B0185
:10233800DBB202780F490A4482F80033037858095F
:1023480003F01F03012202FA03F341F820300BE0E7
:1023580003785A0903F01F03012101FA03F320321D
:10236800044941F8223070475DF8044B704700BFBC
:1023780000ED00E000E100E00346002002E001304B
:10238800C0B201331A78002AF9D1704710B5044653
:102398004B88012B09D1C0F81831D0F8E4359B6877
:1023A8009847204600F002FC10BD022B29D18B88EB
:1023B80013F0FF0F25D1026952681B0A013B042B59
:1023C80017D8DFE803F003070B0F1300012363F3AB
:1023D80006120EE0022363F306120AE0032363F3F6
:1023E800061206E0042363F3061202E0052363F3F2
:1023F8000612044B1A60012384F81631204600F0B7
:10240800D5FB10BD480B002090F8CC350B7090F828
:10241800CD354B7090F8CE3590F8CF2503EB0223DD
:102428004B8090F8D03590F8D12503EB02238B80B0
:1024380090F8D23590F8D32503EB02239BB2CB80DA
:10244800C0F84031012380F81131704710B50446B7
:10245800802101F01BFC0021204601F017FC2046DA
:1024680001F0F6FA10BD00BF30B583B005460C4642
:102478004A88130A013B062B67D8DFE803F00416E5
:102488002266665E6200D0F8EC351B680DF1060125
:1024980080789847E388402B03D095F81231012BB8
:1024A80057D10823ADF8063053E0D0F8E4359B6ADD
:1024B8000DF106018078984702234370C5F8F005AE
:1024C80047E0D2B2052A34D8DFE802F0030B131B29
:1024D800232BD0F8EC355B680DF10601807898471E
:1024E80037E0D0F8EC359B680DF106018078984705
:1024F8002FE0D0F8EC35DB680DF1060180789847BD
:1025080027E0D0F8EC351B690DF106018078984773
:102518001FE0D0F8EC355B690DF10601807898472B
:1025280017E0D0F8EC359B690DF1060180789847E3
:102538000FE02146FFF78AFF19E02146FFF786FFE3
:1025480015E02146FFF782FF11E02146FFF77EFFE5
:102558000DE0BDF8063053B1E28842B19A4228BF77
:102568001A46ADF806200146284600F0EFFA03B0F7
:1025780030BD00BF38B504468B88E3B9CB88D3B9E2
:102588008D7805F07F0590F81231032B02D1FFF703
:102598005DFF38BD80F81451294601F0BBFB204689
:1025A80000F004FB1DB1022384F8123138BD012369
:1025B80084F8123138BD2046FFF748FF38BD00BF08
:1025C80010B504468B78214A1370012B02D9FFF706
:1025D8003DFF10BD90F81221022A02D0032A10D024
:1025E80030E05BB180F81031032280F812211946DF
:1025F80000F098FA204600F0D9FA10BD00F0D6FA9B
:1026080010BD5BB9022280F8122180F810311946FA
:1026180000F094FA204600F0C9FA10BD90F81011A5
:102628008B420CD000F08AFA084B197884F8101104
:10263800204600F077FA204600F0B8FA10BD00F006
:10264800B5FA10BDFFF702FF10BD00BF3002002031
:1026580008B5CB88012B02D0FFF7F8FE08BD90F82B
:102668001231022B02D0032B05D00AE001220649C1
:1026780000F06CFA08BD012200F5887100F066FAD6
:1026880008BDFFF7E3FE08BD2C02002008B590F84E
:102698001231023B012B0DD80022084B1A60D0F8EA
:1026A800183113B10222054B1A600222034900F0C7
:1026B8004DFA08BDFFF7CAFE08BD00BF240200207E
:1026C80010B5044690F81231023B012B0DD84B8807
:1026D800012B0CD10023C0F81831D0F8E4359B68E1
:1026E8009847204600F062FA10BDFFF7AFFE10BD14
:1026F80008B54B78092B1BD8DFE803F011171A141B
:102708001A08051A0E0BFFF7AFFE13E0FFF732FFAA
:1027180010E0FFF755FF0DE0FFF79AFF0AE0FFF71B
:10272800B5FF07E0FFF732FE04E0FFF7C9FF01E05D
:10273800FFF78CFE002008BD38B504460D4690F81A
:102748001231032B0FD10B79012B09D8D0F8E435BE
:102758009B689847EB8843B9204600F027FA04E0C5
:10276800FFF774FE01E0FFF771FE002038BD00BFDF
:1027780038B505460C468A88D1B26378012B27D034
:10278800002B49D0032B40F0818090F81231022BA6
:1027980002D0032B07D017E0002977D0802975D005
:1027A80001F074FA72E0638823B919B1802901D065
:1027B80001F06CFAD5F8E4359B682146284698471D
:1027C800284600F0F3F961E02146FFF73FFE5DE09F
:1027D80090F81231022B02D0032B07D018E0002901
:1027E80054D0802952D001F051FA4FE06388002B71
:1027F8004CD149B1802907D001F06AFAD5F8E435FF
:102808009B68214628469847284600F0CFF93DE0C6
:102818002146FFF71BFE39E090F81231022B02D057
:10282800032B06D02FE089B380292FD001F02EFA90
:102838002CE052B2002A10DA01F07F0101EB81018D
:10284800CB00034493F81E311BB10122104B1A60D0
:1028580013E000220E4B1A600FE0002A0DDB01EB9B
:102868008101CB00034493F876331BB10122084B56
:102878001A6002E00022064B1A6002220449284628
:1028880000F064F902E02146FFF7E0FD002038BDC2
:1028980028020020D0B170B50D4616460446FFF751
:1028A8006BFD0130400080B23080287003236B70CC
:1028B800022307E05A1CD2B20134E9540233DBB2D6
:1028C8000021A95421780029F4D170BD704700BFB8
:1028D8000369024A12685A6000207047480B0020BA
:1028E80010B50446D0F8E8351B699847032384F8E7
:1028F8001231002010BD00BF08B590F8123180F8E1
:102908001331042380F81231D0F8E835DB68984792
:10291800002008BD08B5D0F8E435DB6903B1984755
:10292800002008BD08B5D0F8E4351B6A9847002098
:1029380008BD00BF08B5D0F8E4355B6A98470020A9
:1029480008BD00BF10B5044600234022194601F017
:10295800FFF8002340228021204601F0F9F80123E6
:1029680084F81231D4F8E8355B68A07898470020DD
:1029780010BD00BF10B582B004466946FFF744FD9C
:102988009DF8001001F01F03012B08D013B1022B92
:102998000AD00EE069462046FFF7AAFE0EE0694617
:1029A8002046FFF7C9FE09E069462046FFF7E0FE2A
:1029B80004E001F08001204601F068F9002002B02F
:1029C80010BD00BF10B50446002947D190F8113159
:1029D800022B38D1D0F83821D0F824319A4211D9B5
:1029E800D21AC0F83821C178012904D1D0F82811A9
:1029F8000B44C0F8283192B2D4F82811204600F0D0
:102A0800B5F820E0D0F83C11B1FBF3F203FB121249
:102A180062B98B420AD8D0F84031994206D21146A1
:102A280000F0A4F80023C4F840310CE0D4F8E435F1
:102A3800DB682BB194F81221032A01D1204698476C
:102A4800204600F0C3F894F81631012B11D1204626
:102A5800FFF73EFF002384F816310AE00A46D0F853
:102A6800E4355B692BB190F81211032901D11146A5
:102A78009847002010BD00BF10B5044659BB90F818
:102A88001131032B32D1D0F89033D0F87C23934204
:102A980014D99B1AC0F89033C178012904D1D0F811
:102AA80080131144C0F880139A4228BF1A4692B284
:102AB800D4F88013204600F071F817E0D0F8E43518
:102AC8001B6923B190F81221032A00D198472046A8
:102AD80000F06CF80AE00A46D0F8E4359B692BB19F
:102AE80090F81211032901D111469847002010BD12
:102AF800F8B504460D4616461F4601F0E7FAC4F835
:102B0800E475069BC4F8E835C4F8EC652946204608
:102B180000F0D0FFD4F8E8351B689847204601F04C
:102B280019FBF8BD10B50446D0F8E4351B68984782
:102B3800D4F8E8359B689847002010BD08B5D0F850
:102B4800E4355B689847002008BD00BF10B504460F
:102B58001346C4F83C21C4F83821022280F8112118
:102B68000A46002101F06EF8002010BD08B5134692
:102B78000A46002101F066F8002008BD10B5044699
:102B88001346C4F89423C4F89023032280F8112133
:102B98000A46002101F028F8002010BD08B51346A8
:102BA8000A46002101F020F8002008BD10B50446AF
:102BB800042380F8113100231A46194601F042F81F
:102BC800204600F045FF002010BD00BF10B50446A8
:102BD800052380F8113100231A46194601F004F83C
:102BE800204600F035FF002010BD00BF10B5044698
:102BF800837A3BB1D0F80C2113686FF341036FF36C
:102C0800000313602269536823F001035360054BE6
:102C18001B689B69204698474FF00043E268536160
:102C2800012010BD0000002030B583B00546002407
:102C38008DF8074090F812318DF80730154B1B6856
:102C48005B6998472B699A684FF40064EB685C618C
:102C5800AB7AE3B112F0010F19D095F81531012BB9
:102C680015D19DF80730DBB2032B10D1D5F80C2114
:102C7800136843F001031360D5F80C21136843F07F
:102C880003031360044A136943F006031361012028
:102C980003B030BD0000002000ED00E010B5044690
:102CA800044B1B68DB6898470823E26853610120DE
:102CB80010BD00BF0000002010B50446044B1B687F
:102CC800DB6998474FF48013E2685361012010BD17
:102CD8000000002010B50446044B1B681B6A984787
:102CE8004FF40013E2685361012010BD000000207A
:102CF80010B402691469536BCB40DB01DBB2234388
:102D0800043100EB81008268906818405DF8044B3C
:102D1800704700BF2DE9F041074600F083FE0446E6
:102D2800002553E014F0010F4ED05FFA85F84146B4
:102D3800384600F07DFE064610F0010F2BD0012624
:102D480005F1140307EB83035B689E60FB78B342CD
:102D580010D105F1140307EB83035B681969AA0016
:102D68002A44D3003B44D3F87C23C1F31201521AFE
:102D7800C3F88C23184B1B681B6841463846984794
:102D8800FB78012B07D135B997F81131052B02D102
:102D9800384600F05DFE16F0020F06D0022605F157
:102DA800140307EB83035B689E6016F0080F0BD0D3
:102DB800094B1B689B6838469847082605F1140399
:102DC80007EB83035B689E6001356408002CA9D17A
:102DD8000120BDE8F08100BF000000202DE9F0418E
:102DE80007460D468A000A44D3000344D3F830212D
:102DF800D3F83411521AD3F824319A4200D8134622
:102E080003F103084FEA98082B1D07EB83039B681F
:102E18009B693AE05B1A05EB8501CA003A44D2F88F
:102E28002461B34200D81E4606F103084FEA980809
:102E3800AB002B44DC003C44B3B2EAB2D4F828110E
:102E4800384600F0FDF9D4F828313344C4F8283165
:102E5800D4F834311E44C4F83461D4F830319E4279
:102E68000ED305EB8505EB003B4493F81C210123A9
:102E780003FA02F239694B6B23EA02034B6313E04E
:102E88002B1D07EB83039B689B699BB298450BD26C
:102E9800AB002B44DA003A44D2F83411D2F830317E
:102EA800994201D2002BB5D10120BDE8F08100BFC5
:102EB8002DE9F041074600F0C5FD044600265EE016
:102EC80014F0010F59D05FFA86F841463846FFF7EB
:102ED8000FFF054610F0010F1ED0012303FA06F07C
:102EE80039694A6B22EA00024A631D46321D07EB24
:102EF800820292689360244B1B685B68414638469F
:102F08009847FB78AB4207D136B997F81131042BB3
:102F180002D1384600F09CFD15F0080F05D00825B1
:102F2800331D07EB83039B689D6015F0100F05D0D8
:102F38001025331D07EB83039B689D6015F0400F38
:102F480005D04025331D07EB83039B689D6015F072
:102F5800020F05D00225331D07EB83039B689D6094
:102F680015F0800F09D031463846FFF737FF802526
:102F7800331D07EB83039B689D6001366408002CB2
:102F88009ED10120BDE8F081000000202DE9F0412C
:102F98000546C268936923F010039361C3681C6AED
:102FA80004F00F06C4F34343022B02D0062B1CD0B7
:102FB8002BE047F6F073234227D0C4F30A144FEAF4
:102FC800860808EB0603DF0007442246D7F880137B
:102FD80000F04CF9D7F880332344C7F88033D7F88A
:102FE8008C331C44C7F88C430FE0082200F2CC5104
:102FF80000F03CF9C4F30A14B2009119CB002B4439
:10300800D3F88C231444C3F88C43EA68936943F0DB
:10301800100393610120BDE8F08100BF2DE9F8435A
:1030280004460025A8462F462E460269536823F019
:1030380001035360294600F0EDF92B460CE01A1DF8
:1030480004EB82029268FF21916003F1140204EB01
:10305800820252689160013362789342EFD3236908
:103068004FF0FF329A614FF0010969F30F0569F3D8
:103078001F452369DD6148F00B082369C3F81480F4
:1030880047F00B0723691F61226913686FF30A135E
:103098001360204600F0DCFC46F48056E3685E616D
:1030A800034B1B681B69204698474846BDE8F883D0
:1030B8000000002038B5044600F0DEFAE368DD6859
:1030C800204600F0C9FA032808D10023A3704FF462
:1030D8000073A380092363F38D2506E00123A37001
:1030E8004023A380052363F38D25E368DD604FF457
:1030F8000053E2685361012038BD00BF2DE9F0415B
:10310800054600F0E7F900285AD0284600F0EAF909
:103118000646002858D0C0F3074717F0080F04D018
:103128002846FFF7F7FD044600E0002417F0040FD7
:1031380003D02846FFF7BCFE04435FFA86F818F070
:10314800020F02D00223EA685361002E03DA2846F0
:10315800FFF74CFD0443C6F3072616F0080F03D00B
:103168002846FFF761FD044318F0080F03D02846EE
:10317800FFF794FD044318F0100F03D02846FFF71B
:1031880005FF044316F0100F03D02846FFF746FF4B
:10319800044316F0200F03D02846FFF78BFF0443A3
:1031A80017F0100F03D02846FFF786FD044317F0E9
:1031B800200F08D02846FFF78DFD2043BDE8F08199
:1031C8000020BDE8F0812046BDE8F081C3684FF0DB
:1031D800FF325A60C3686FF080425A61014BC2687F
:1031E800936170470008008030B583B0054600241D
:1031F8000194032000F0C2FFEB681A6901920134C0
:103208000E4A944217D8019A002AF2DA019A42F03B
:1032180001020192019A1A610023EA681269019277
:103228000133064A934203D8019A12F0010FF4D1F0
:10323800032000F0A3FF002003B030BD400D0300C1
:1032480010B4C4786CB903339B10323200EB82009F
:103258008468002203E051F8040B206001329A428E
:10326800F9D300205DF8044B704700BF10B4033257
:103278009210D0F8D040002303E0206841F8040BF6
:1032880001339342F9D308465DF8044B704700BFF9
:1032980030B40023C3700123837040238380012945
:1032A8000DD10123C37208230370042343704FF424
:1032B800A073C380022303724FF0A0440CE051B9FD
:1032C8000023C3720C230370062343704FF4A063DA
:1032D800C380234C00E00024C46004F5006303614C
:1032E80000230FE004EB431202F51065191D00EBF3
:1032F80081018D6002F5306203F1140100EB810158
:103308004A60013342789342ECD304F58063436109
:1033180004F58863C0F8CC30002309E004EB4311BE
:1033280001F5A06103F1220200EB820291600133F2
:103338000578AB42F2D3002309E004EB033101F531
:10334800805103F1320200EB820291600133AB42FB
:10335800F3D304F56064C0F80C41002030BC70471A
:103368000000044038B50446037A012B22D1002519
:10337800C268936B6FF31043417A09B143F4801329
:103388009363E268D3686FF386136FF396536FF312
:1033980051436FF3D343D3602046FFF725FFE3780B
:1033A800012B19D1052363F3440545F02005E36893
:1033B8009D6011E0C268D16841F04003D360FFF717
:1033C80013FF4FF43413627A0AB14FF47413E268AE
:1033D8009363142000F0E4FEE378012B07D1E3683F
:1033E8009D68052262F3440545F020059D60002094
:1033F80038BD00BFC268936843F0010393600020A2
:10340800704700BFC268936823F0010393600020EF
:10341800704700BF00B583B000230193019A42F0C2
:1034280020020192019A61F38A120192C2680199FD
:103438001161C268126901920133074A934203D8A5
:10344800019A12F0200FF4D1032000F097FE00201B
:1034580003B05DF804FB00BF400D030000B583B066
:1034680000230193019A42F010020192C268019967
:103478001161C268126901920133074A934203D865
:10348800019A12F0100FF4D1032000F077FE00200B
:1034980003B05DF804FB00BF400D030008B5C26827
:1034A800D3686FF35D736FF39E73012902D143F004
:1034B800005302E009B943F08043D360322000F0A2
:1034C8006FFE002008BD00BFC368586900F0010006
:1034D800704700BF08B5FFF7F7FF10F1FF3018BFBE
:1034E800012008BDC36858699B691840704700BF30
:1034F8000269136861F301031360704738B5054624
:103508000024C3689C61C3686FF080425A61FFF76A
:103518005DFEEB7803B9102444F4701444F460544D
:1035280044F00804EA68936923EA04031C4394619D
:10353800002038BD70B504460025D0F80C311D6058
:103548000269136865F3CC231360C37A012B20D179
:103558002E460321FFF7CCFFE26880235362C0F2B6
:10356800400563F30F05E2689562C02262F30F0617
:1035780063F31F46E368C3F804614FF4A07363F371
:103588000F066FF31F46E368C3F80861E368C3F8E2
:103598000C6110212046FFF73DFF2046FFF75EFF34
:1035A800236900221A6123695A6123694FF0FF31A8
:1035B80099612369DA6116E0131D04EB83039B68A4
:1035C8001B68002B02DA4FF0904100E00021131D28
:1035D80004EB8303986801609968002008619B6880
:1035E800FF219960013263789A42E5D3002218E0FE
:1035F80002F1140304EB83035B681B68002B02DAF7
:103608004FF0904100E0002102F1140304EB830322
:10361800586801605968002008615B68FF2199605B
:10362800013263789A42E3D32269136943F48073C1
:103638001361E378012B09D10323402262F38A0343
:1036480043F4803362F35943226913632046FFF73A
:1036580055FF002070BD00BF03699B68C3F3410399
:10366800022B04D005D8012B03D00320704701207A
:1036780070470220704700BF03699B688269116820
:10368800C3F34103022B02D06FF30A0102E00323C4
:1036980063F30A0111600269536843F4807353604D
:1036A8000020704730B400224B78012B08D10D78E8
:1036B8002C1D00EB8404A468AB4063F30F0209E0FF
:1036C8000D7805F1140400EB840464680123AB4011
:1036D80063F31F42236813F4004F0DD18D6865F31F
:1036E8000A03CD7865F39343C98861F3995343F08E
:1036F800805343F4004323600369D9690A43DA61BC
:10370800002030BC704700BF70B4002215464B78CB
:10371800012B08D10E78311D00EB81018C68B34074
:1037280063F30F0509E00B7803F1140400EB84043C
:1037380064680121994061F31F456FF3CF3222601D
:103748000269D36923EA0503D361002070BC70477E
:1037580038B54B78012B58D10B78043300EB830331
:103768009B681A681C694B692BB96FF31204012313
:1037780063F3DC440DE063F312048D682B44013BD2
:10378800B3FBF5F363F3DC44CB78012B01D163F38E
:103798005E740B78043300EB83039B681C61C37869
:1037A800012B07D10B78043300EB83039B680C696A
:1037B8005C610CE0CB78012B09D04B693BB10C78EC
:1037C800012303FA04F405696B6B23436B63CB781D
:1037D800012B09D103699B6813F4807F02D142F061
:1037E800005201E042F0805242F004420B78043368
:1037F80000EB83039B681A60CB78012B44D18B8A3A
:103808000A78C968FFF71CFD3EE00B78143300EB1B
:1038180083035B681A681C694B6933B98B6863F367
:103828001204012363F3DC440CE08D682B44013B54
:10383800B3FBF5F3C3F3090363F3DC4405FB03F3BC
:1038480063F312040B78143300EB83035B681C6189
:10385800C378012B06D10B78143300EB83035B6824
:103868000C695C61CB78012B06D14B7913B142F01E
:10387800005201E042F0805242F004420B781433C7
:1038880000EB830043681A60002038BD30B482B072
:103898004B78012B49D183691A681C6900944C69DB
:1038A8006CB99DF800406FF306048DF800409DF850
:1038B8000240012565F3C4048DF8024017E08D68C5
:1038C800AC4207D94D619DF8004065F306048DF8B8
:1038D800004005E09DF8005064F306058DF800509F
:1038E8009DF80240012565F3C4048DF80240009C50
:1038F8001C61C478012C06D10C78043400EB8404D4
:10390800A4680D69656142F004421A60C378002B0F
:103918004CD14B69002B49D00A78012303FA02F2F3
:1039280001694B6B13434B6340E00B78143300EB96
:1039380083035B681A681B6900934B6973B98C68C9
:103948009DF8003064F306038DF800309DF80230CE
:10395800012464F3C4038DF802300EE08C684C61D6
:103968009DF8003064F306038DF800309DF80230AE
:10397800012464F3C4038DF802300B78143300EB90
:1039880083035B68009C1C61C378012B06D10B780C
:10399800143300EB83035B680C695C6142F00442FA
:1039A8000B78143300EB830043681A60002002B0E0
:1039B80030BC70474B78012B0DD10B78043300EBEA
:1039C800830082681368002B01DA43F0804343F4D4
:1039D8000013136008E00B78143300EB830042688F
:1039E800116841F400131360002070474B78012BD5
:1039F80005D10B78043300EB8300806804E00B7872
:103A0800143300EB8300406802686FF35552CB789B
:103A1800023BDBB2012B01D842F080520260002049
:103A2800704700BF03699869DB691840000C70474C
:103A3800143100EB81014B689A680369586910409A
:103A4800704700BF03699869DB69184080B2704706
:103A580082B000230093C0238DF803304FF0000399
:103A6800012262F3C4038DF8023018238DF8003068
:103A7800436D009A1A61C378012B08D1436D00F297
:103A8800CC525A61436D1A684FF080221A6002B016
:103A9800704700BF837A63B103699B6813F0010F15
:103AA80007D0D0F80C2113686FF341036FF30003BC
:103AB8001360704738B50446FFF7EAFB012384F822
:103AC8001231002284F8142115E091001144CB0032
:103AD8002344012183F81D1183F81C21A3F8222116
:103AE800002183F81F114020C3F82401C3F82811CE
:103AF800C3F83011013260788242E6D3002214E024
:103B080091001144CB002344002183F8751383F8F6
:103B18007423A3F87A2383F877134025C3F87C53DA
:103B2800C3F88013C3F8881301328242E8D32046D1
:103B3800FFF768FC2046FFF715FC00212046FFF739
:103B4800ADFC2046FFF7F6FC2046FFF753FC38BDD6
:103B580070B54DB2002D09DA01F07F0606EB860636
:103B6800F40004F58C740444043408E001F07F0682
:103B780006EB8606F40004F55C740444043401F092
:103B88007F012170ED0F6570A260E37005B1E180DF
:103B9800022B01D1002323712146FFF783FD00206A
:103BA80070BD00BF10B54AB2002A09DA01F07F04DF
:103BB80004EB8404E30003F58C730344043308E046
:103BC80001F07F0404EB8404E30003F55C73034411
:103BD800043301F07F011970D20F5A701946FFF7AC
:103BE80093FD002010BD00BF70B501F07F04A60052
:103BF8003519E9000D4601F55C71014404310544AD
:103C0800C5F88023C5F888330023C5F88C3385F8B8
:103C1800753385F87443C378012B05D104EB84050B
:103C2800EB000344C3F8842304EB8404E300034457
:103C380093F8743313B9FFF729FE01E0FFF788FD05
:103C4800002070BD70B501F07F05AE007119CC0081
:103C580004F58C740444211D2E44F4000444012608
:103C680084F81D6184F81C51C4F82821C4F82C215B
:103C78000022C4F83421C4F8303115B9FFF706FE24
:103C880001E0FFF765FD002070BD00BF10B54AB226
:103C9800002A09DA01F07F0404EB8404E30003F549
:103CA8008C730344043306E001EB8104E30003F55D
:103CB8005C730344043301249C7001F07F01197084
:103CC800D20F5A701946FFF775FE002010BD00BFCD
:103CD80010B54AB2002A09DA01F07F0404EB840423
:103CE800E30003F58C730344043306E001EB81041D
:103CF800E30003F55C730344043300249C7001F073
:103D08007F011970D20F5A701946FFF76FFE2046CF
:103D180010BD00BF002361F30A13026911680B4349
:103D28001360704708B5074B1868FF2808D0064B82
:103D38009B68064A126806499847FF22014B1A6099
:103D4800002008BD5C000020F40000203C02002098
:103D58009013002043230B80004870476000002028
:103D680038B51F4B1B78012B38D01E4B1B68B3F599
:103D7800006F02D100221B4B1A601A4B19681A4BAC
:103D88001B68994203D10022154B1A7038BD99421D
:103D980004D9C1F50063154A136002E05B1A134A9F
:103DA8001360124B1C68402C08D98DB240310D4B62
:103DB8001960403C0D4B1C60402307E08DB2A3B254
:103DC8002144084A11600021084A1160012404496D
:103DD8000C70074A2A448121FFF734FF38BD00BF21
:103DE8003802002044020020400200204C0200203B
:103DF800900B002008B5064A1368591C1160012B66
:103E080004D10022024B1A60FFF7AAFF002008BD68
:103E18004802002038B5184B1B78012B2AD1174BC4
:103E28001C685CB901EB8101CB000344D3F8303145
:103E3800402B19D00022104B1A701BE0402C09D9D6
:103E48000F490B689AB240330B60403C0B4B1C6027
:103E580040230AE00A4D29688AB2A3B20C442C60B8
:103E6800002406490C6000E0002306490A44812129
:103E7800FFF7E8FE002038BD380200204C02002081
:103E880044020020900B002038B5044601EB810164
:103E9800CB000344074A1269074DB3F88C13284630
:103EA800904740232A4601212046FFF79DFE002027
:103EB80038BD00BFF40000209813002070B50646F6
:103EC8000C460B7813F0600529D0202D23D1CA8821
:103ED800CAB113F0800F0CD0244B9B68244D29469F
:103EE80060789847E28829463046FEF72FFE00257D
:103EF80039E049781F4B19601F4B1A601C49FEF7BF
:103F08003DFE00252FE0194B9B6800221146607882
:103F18009847002527E0FEF799FA022523E04B7819
:103F28000A2B13D00B2B16D0062B1CD14B881B0A3F
:103F3800212B05D1CA883A2A28BF3A220F4901E025
:103F48000F493A223046FEF701FE0CE001220D49E6
:103F5800FEF7FCFD07E08B781BB90A4A13601D4683
:103F680001E0FEF773FA284670BD00BFF400002098
:103F7800901300205C0000203C020020720000200A
:103F8800690000203402002010B504468121FFF7A3
:103F980009FE01212046FFF705FE82212046FFF792
:103FA80001FE024B5B689847002010BDF40000201A
:103FB80038B50446022340228121FFF7C9FD0223B8
:103FC800402201212046FFF7C3FD03230822822156
:103FD8002046FFF7BDFD084B02221A7100255D71CE
:103FE800064B1B6898474023054A01212046FFF7E6
:103FF800FBFD284638BD00BFC4000020F4000020A7
:104008009813002012230B8000487047C40000203A
:1040180004230B8000487047C000002008B50A46FA
:1040280020B905490548FEF735FC03E00249044874
:10403800FEF730FC004808BD140B0020F0560008BD
:104048001457000810B5044C0A4621460348FEF7E9
:1040580021FC204610BD00BF140B00203857000873
:1040680008B50A4620B905490548FEF713FC03E0E0
:1040780002490348FEF70EFC004808BD140B002057
:104088004457000808B50A4620B905490548FEF70F
:1040980001FC03E002490348FEF7FCFB004808BDA9
:1040A800140B00205057000808B50A4620B90549E6
:1040B8000548FEF7EFFB03E002490348FEF7EAFB79
:1040C800004808BD140B00205C57000830B585B0C7
:1040D80043238DF8043002258DF8055000248DF80F
:1040E80006408DF8074001A8FEF70EF901210846A1
:1040F800FDF732FF4FF4C053029303238DF80D30C0
:104108008DF80C508DF80E408DF80F40104C02A918
:104118002046FDF7B1FE0A220B212046FDF704FFD9
:104128000A220C212046FDF7FFFE01214FF48040B2
:10413800FDF73CFF01218020FDF71CFF01214FF016
:104148008050FDF741FF0120FEF7CEF805B030BDE5
:104158000000024000B583B043238DF804300223E9
:104168008DF8053000238DF8063001238DF80730CF
:1041780001A8FEF7C9F803B05DF804FBC0EB001016
:10418800C200064BA3FB0213D21A03EB5202920899
:10419800002301339A42FCD2704700BF254992247C
:1041A80008B54FF47A7303FB00F0FFF7E7FF08BD8B
:1041B800704700BF704700BF704700BF704700BF1F
:1041C800704700BF704700BF704700BF704700BF0F
:1041D800704700BF704700BF704700BF08B5094B64
:1041E8009B7A4BB1084A136823F00603136000F06A
:1041F8001FFA0448FFF74EFC4FF48020FEF774F8CE
:1042080008BD00BFD813002010ED00E038B5074CFA
:104218002046FFF767F905462046FEF76FFF044B77
:104228002B400BB100F098F838BD00BFD813002020
:10423800100008000522024B1A600020704700BFDA
:10424800580A00200020014B18607047580A0020C7
:1042580070B4002209E0074C2368865C064DEE54D2
:104268000133C3F30A03236001328A42F3D30020E7
:1042780070BC704740020020900B0020014B186072
:10428800704700BF5C0A002008B5FFF7BFFF08BDF4
:104298000B6803600B7903714B7943718B798371D8
:1042A800704700BF08B50B46202802D0212804D04B
:1042B80007E00548FFF7ECFF03E003491846FFF75E
:1042C800E7FF002008BD00BFCC19002010B50C4640
:1042D800FFF7BEFF204610BD064B1B68064A106854
:1042E8001A1A834294BF4FF40063002398180138C8
:1042F800704700BF440200204002002010B4002292
:1043080008E00A4CE45C84540133C3F30A03084C04
:1043180023600132064B1B68064C2468A34201D077
:104328008A42EED310465DF8044B704754020020D1
:1043380050020020540A0020054B1868054B1B68E2
:10434800984203D91B1A03F500607047181A704782
:1043580050020020540A00200B4B1B6853B97047C9
:10436800012101A8FFF7CAFF074B1B689DF804004D
:10437800984701E000B583B0FFF7DEFF0028EFD1D2
:1043880003B05DF804FB00BF5C0A002070B5054669
:104398000C46FFF7D1FF2044B0F5006F0FD800227C
:1043A80009E008490B68AE5C0748C6540133C3F3FB
:1043B8000A030B600132A242F3D3002070BD022031
:1043C80070BD00BF540A002054020020024A13683E
:1043D80001331360704700BF600A002038B5114BE5
:1043E8001C680025201945EB0501001969418B015E
:1043F80043EA90638201801859418B0043EA907325
:104408008200101943EB05018B0043EA9073820088
:10441800104619466422002300196941FCF700FC84
:1044280038BD00BF600A0020014B1868400970477A
:10443800600A002008B54FF4A060FDF75BFF394B18
:104448001B68394AA2FB0323DB0A1A33374A536035
:10445800F021374B83F82310002393600723136060
:104468000021334B83F823108020FDF783FD0121C1
:104478004FF48050FDF79AFD01214FF48040FDF77D
:1044880087FD01214FF40040FDF782FD01214FF423
:104498008000FDF761FD01214FF40010FDF75CFD80
:1044A80001214FF40010FDF773FD01214FF4800046
:1044B800FDF76EFD01210846FDF74EFD01210220A2
:1044C800FDF74AFD01210420FDF746FD01210820E2
:1044D800FDF742FD01214FF48040FDF767FD012102
:1044E8000846FDF763FD01210846FDF751FD01214E
:1044F8000220FDF74DFD01210820FDF749FD0121AE
:104508004FF48030FDF752FD01210220FDF74EFDEA
:1045180001214020FDF73CFD01211020FDF746FD5B
:1045280008BD00BF08010020D34D621010E000E074
:1045380000ED00E038B50546FFF750FF0446FFF7E9
:104548004DFF001B61F100010023994208BFA842FA
:10455800F5D338BD10B504E04FF47A70FFF7EAFFE1
:104568002046441E0028F7D110BD00BF82B00023AA
:10457800019300932A4A136843F480331360284B4D
:104588001B6803F400330093019B01330193009BE4
:104598001BB9019BB3F5A04FF1D1214B1B6813F454
:1045A800003F02D00123009301E000230093009B09
:1045B800012B32D11A4B1A6C42F080521A641949F5
:1045C8000A6842F440420A609A689A609A6842F41B
:1045D80000429A609A6842F4A0529A60124A5A605D
:1045E8001A6842F080721A600D4B1B6813F0007F46
:1045F800FAD040F205620D4B1A60A3F580639A6801
:1046080022F003029A609A6842F002029A60044B10
:104618009B6803F00C03082BF9D102B0704700BF68
:10462800003802400070004008544007003C024037
:1046380010B5104CD4F8883043F47003C4F88830AF
:104648000D4B1A6842F001021A60002199601A683D
:1046580022F0847222F480321A60084A5A601A687A
:1046680022F480221A60D960FFF780FF4FF00063C0
:10467800A36010BD00ED00E00038024010300024B7
:1046880008B503680878984708BD00BF012A02D01A
:10469800022A02D004E0016002E00B6800B1036066
:1046A800002070470023836029B100B10160024BEC
:1046B800C360024B8360704789460008954600082E
:1046C80000B583B08DF8071083680BB900F094FB30
:1046D800C3680DF10701984703B05DF804FB00BFFC
:1046E80038B50446002383608B687BB10D460222EF
:1046F8009847EB68E360AB68A36007E0A3681BB169
:10470800032221462046984700F0BFFA204638BDCC
:1047180070B50023A0EBC006C0EBC00210F8015B27
:10472800941905F07F02A24013432A06F4D40B60C3
:1047380070BD30B500231A4610F8014B04F07F0510
:1047480095402B43250602F10702F5D41F2A06D807
:10475800640642BF4FF0FF3404FA02F213430B60C1
:1047680030BD5028F7B505460F4614461E4605D1FC
:10477800D01C20F0030050F8043B33E000F00F0396
:104788000C2B23D8DFE803F01A07121A1E22222264
:10479800220C161A1E0001A92046FFF7B9FF03E0F4
:1047A80001A92046FFF7C5FF019B11E0204630F81C
:1047B800023B0DE0204630F9023B09E0204650F864
:1047C800043B05E0204650F8083B01E000F0F8FD06
:1047D80043B105F07002102A18BF3C4623442A064C
:1047E80048BF1B68336003B0F0BD08B50346FF2B14
:1047F80008461CD003F07003202B0ED003D8B3B1A9
:10480800102B12D113E0402B0BD0502B0FD0302B94
:104818000BD1BDE80840FDF7F7BABDE80840FDF741
:10482800EFBABDE80840FDF7DBBA00F0C9FD00208B
:1048380008BD70B50C460146204615461E46FFF7D2
:10484800D4FF33462A4601462046BDE87040FFF7AC
:1048580088BF73B50E461446054610B1FDF7C0FA79
:10486800FFE720603178FF2906F1010205D0231DFA
:104878002846FFF7DEFF024600E0606013782375E4
:10488800FF2B02F1010007D01023237501A9FFF7C0
:104898003FFF019B034400E00023E3600378637556
:1048A80001A90130FFF734FF019B0344236102B0E3
:1048B80070BD1FB503AB009300230A461946FCF7E9
:1048C80005FD039805B05DF804FB00002DE9F04FE5
:1048D80091B00023049300F00303012B07460C4614
:1048E80015460ED002D3022B02D0EFE0020717D5EF
:1048F80029462046FDF760FA08B109209FE1082003
:104908009DE100F0080202F0FF065AB9D1F82080B4
:1049180028460D21FFF7CDFF804520D1062602E06D
:10492800012600E0022610AB07F0080743F82C4DDB
:10493800009300233E430C2219462846FCF7ECFC62
:10494800062E17D1D4F83080A76AD4F82C90B8F185
:10495800000F0CBF4FF0010A4FF0030A05E110AA3F
:10496800334642F82C4D3146009228460C22FCF77B
:10497800D3FC02262846FDF739FA81460028B7D02D
:104988000AAA01462846FFF764FF294680469DF893
:104998003C00FFF72AFF0F210C902846FFF789FFFC
:1049A80020F00100471E0E9B984580F03F8142464B
:1049B80006AB9DF83D100020FFF73BFF07AB024612
:1049C8009DF83D100020FFF734FF08AB02469DF824
:1049D8003D100020FFF72DFF09A9FFF799FE069B60
:1049E8000A9A13449F42804602D2DDF83880DAE7FB
:1049F800079A13449F42D6D2089818B10B9B00EB34
:104A0800030800E08046099810B10E9F0138384429
:104A1800B8F1000F3FF46CAF002800F00C8116F0DD
:104A28000803029314D0472323704E236370552341
:104A3800A3704323E370462323714F2363715223EA
:104A4800A3710023E3714FF0000A6FF0030B1BE022
:104A5800E379012B0CBF54F8203C04F1580304936C
:104A6800F1E704270D9A09AB07FB11220C99FFF710
:104A780078FE0999002900F0D5806CBB089F002FAB
:104A880059D0039B3B44184607A9FFF752FE08A9D3
:104A98000390FFF74EFE0799002949D025DD9DF8C0
:104AA8003C00FF2814D000F00703042B0ED801A205
:104AB80052F823F06B4A0008D54A0008DD4A00087E
:104AC8006B4A0008D14A00080827CBE700F078FCB9
:104AD8000027C7E70227C5E704AB0022204600F0FD
:104AE800F7F8002840F09E80C8E70D9F4A1CB4B133
:104AF800029BA3B9049B06930BFB0272171F57F87E
:104B0800041F41B106AB00223944204600F0E0F80A
:104B18000028F4D0012181F00101C9B205E00BFBA6
:104B280002F2B958B1FA81F149090029A6D079E011
:104B38004FF0010AA2E7BAF1000F3FF4D9AE4FF0E7
:104B4800020AF30711D5BAF1020F3FF4D1AE0D21D5
:104B58002846049EFFF7ADFE66622062A762C4F88D
:104B68002C90C4F83080062069E016F0080608D0BA
:104B7800BAF1010F01D100F071F8002F24DA00F02A
:104B88007FF8BAF1010F02D1204600F055F9002F45
:104B98001ADA0AAA49462846FFF75BFE29469DF815
:104BA8003C00FFF722FE6FF003030D9A0C9007FB01
:104BB8000333134453F826200AB10136FAE70422D6
:104BC800A662E0622263636310AB284643F81C4D7B
:104BD800009300231A461946FCF79EFB10AB0122EE
:104BE80043F8207D0093002319462846FCF794FBE0
:104BF8000F212846FFF75DFE10AB00F0010040EAE8
:104C0800080043F8240D009300230F221946284674
:104C1800FCF782FBBAF1020F02D1204600F0B6F889
:104C280007200CE0079F4FF0030A8AE74FF00008BF
:104C38004FF0010A01E04FF0020A002781E711B0A6
:104C4800BDE8F08F08B5804700F0BAFB024B186842
:104C5800BFF35F8F704700BF0C01002008B5FFF756
:104C6800F5FFFFF7EFFF08B58047FFF7F7FF0000F4
:104C7800024B1868BFF35F8F704700BF1001002018
:104C880008B5FFF7F5FFFFF7EEFF1EB400F09BF83D
:104C98001EBCFCF7CBFE0378472B17D143784E2B6D
:104CA80014D18378552B11D1C378432B0ED10379B6
:104CB800432B0BD143792B2B08D183792B2B05D18F
:104CC800C07901288CBF0020012070470020704760
:104CD8002DE9F3411D460378472B0E460246C1795C
:104CE80044D143784E2B41D18378552B3ED1C3789C
:104CF800432B3BD10379462B38D143794F2B35D100
:104D08008379522B32D1002930D10123084600245F
:104D1800019483B988B901290ABF52F8203CA2F14D
:104D28002003783B012908BF52F8202C1C6818BFC3
:104D38005832019202E0134C00E0134C23682046DD
:104D48009B68984720B1019B1B680193022700E0EC
:104D58000127336801AAD3F8108021460123304681
:104D6800C04758B1019B2B60384607E01046FFF753
:104D780092FF80F00100C0B20023C8E702B0BDE88E
:104D8800F08100BF8C570008B857000810B50446DA
:104D980000F0BCF802462046A4F12001FFF77BFF93
:104DA80050B154F8043C0133012B44F8043C08D1B9
:104DB800936844F8083C03E093680BB1FFF74EFF93
:104DC8009160012010BD10B500F0A0F8826801467E
:104DD8000AB9FFF743FF02F120042046FFF75BFF03
:104DE80038B1D369013BD36123B990698860936175
:104DF80000E08860204610BD08B500F0E1FA0378AD
:104E0800472B17D143784E2B14D18378552B11D1CA
:104E1800C378432B0ED10379432B0BD143792B2B2A
:104E280008D183792B2B05D1C07901288CBF0020AC
:104E3800012070470020704710B5044648B100F0C3
:104E48003BF82046FFF7DBFF18B154F8140CFFF7C6
:104E5800F9FEFFF703FF38B50246FFF7D0FF18B198
:104E680052F8184C002501E004460125104600F0D0
:104E780023F80DB1FFF704FF2046FFF7F4FE03788F
:104E8800472B17D143784E2B14D18378552B11D14A
:104E9800C378432B0ED10379432B0BD143792B2BAA
:104EA80008D183792B2B05D1C07901288CBF00202C
:104EB800012070470020704738B5054600F026F8F5
:104EC800014602682846A5F12004FFF7D8FF28B953
:104ED8000AB1FFF7C3FE0C60144615E055F80C3C08
:104EE800002BB4BFC3F10103013345F80C3C4B68F8
:104EF800A24203F1FF334B6028461CBF45F8102C33
:104F08000C606C6AFCF7DAF9204638BD0048704737
:104F1800640A00207FB51023029303680024154615
:104F28009E6900946B468DF8044003941268B0475C
:104F38009DF8043003F00603062B03BF009B2B608B
:104F48000120204604B070BD009890420CBF062096
:104F58000120704710B5034B0360044600F030F998
:104F6800204610BDC857000810B50446FFF7F2FFE9
:104F7800204600F0A1F8204610BD38B515461C465D
:104F880000F021F920B10823E3600623256023718E
:104F980038BD2DE9F041069E099C9846089B9E4223
:104FA8000746154603D1079900F00DF948B941465F
:104FB800384600F008F928B1012326602571A3714D
:104FC80000E065710020BDE8F0812DE9F04105465B
:104FD8000C4616461F4600F0F6F848B9032F07D8C6
:104FE80023683246294620465B69BDE8F0411847E8
:104FF800BDE8F081244B1A68D0075CBF01221A6013
:10500800224B1A68D1075CBF01221A60204B1A682C
:10501800D2075CBF01221A601E4B1A68D0075CBF1A
:1050280001221A601C4B1A68D1075CBF01221A6062
:105038001A4B1A68D2075CBF01221A60184B1A680B
:10504800D0075CBF01221A60164B1A68D1075CBFF3
:1050580001221A60144B1A68D2075CBF01221A6039
:10506800124B1A68D0075CBF01221A60104B1A68ED
:10507800D1075CBF01221A600E4B1A68D2075CBFC9
:1050880001221A60704700BF9C0A0020980A00207D
:10509800940A0020900A00208C0A0020880A002028
:1050A800840A0020800A00207C0A0020780A002058
:1050B800740A0020700A002000F0B0B910B5034B44
:1050C80003600446FFF746FF204610BD2458000839
:1050D80010B50446FFF7F2FF2046FFF7EDFF204624
:1050E80010BD2DE9F14F0E461946834617469946DD
:1050F8000A9CDDF82CA0DDF830800D9D00F063F8E7
:1051080078B1002E2C602F7106DB3444A0450CBF0B
:1051180006240124AC711EE002361CD10123AB71B8
:1051280019E0444504D15146584600F04CF888B976
:10513800DBF8080003680D95CDF83080CDF82CA079
:105148000A94DC693A464B463146A44601B0BDE8AC
:10515800F04F60476F71002001B0BDE8F08F2DE976
:10516800F041069E964280460F4614461D4603D1DE
:10517800194600F028F858B9D8F8080003680696C8
:105188001E6A22462B463946B446BDE8F0416047C0
:105198000620BDE8F0812DE9F04104460D4616468B
:1051A8001F46FFF7EAFE48B9A06803689C693246C3
:1051B8003B462946A446BDE8F0416047BDE8F0817A
:1051C800704700207047814208B50ED040680378C8
:1051D8002A2B0CD049680B782A2B08BF0131FBF722
:1051E80015FDB0FA80F0400908BD012008BD002077
:1051F80008BD0000184B1A68D1075CBF01221A606D
:10520800164B1A68D2075CBF01221A60144B1A6841
:10521800D0075CBF01221A60124B1A68D1075CBF25
:1052280001221A60104B1A68D2075CBF01221A606B
:105238000E4B1A68D0075CBF01221A600C4B1A6823
:10524800D1075CBF01221A600A4B1A68D2075CBFFB
:1052580001221A60704700BFBC0A0020B80A00206B
:10526800B40A0020B00A0020AC0A0020A80A0020D6
:10527800A40A0020A00A0020244B1A68D0075CBFAB
:1052880001221A60224B1A68D1075CBF01221A60FA
:10529800204B1A68D2075CBF01221A601E4B1A689D
:1052A800D0075CBF01221A601C4B1A68D1075CBF8B
:1052B80001221A601A4B1A68D2075CBF01221A60D1
:1052C800184B1A68D0075CBF01221A60164B1A687F
:1052D800D1075CBF01221A60144B1A68D2075CBF61
:1052E80001221A60124B1A68D0075CBF01221A60AB
:1052F800104B1A68D1075CBF01221A600E4B1A685E
:10530800D2075CBF01221A60704700BFEC0A002078
:10531800E80A0020E40A0020E00A0020DC0A002055
:10532800D80A0020D40A0020D00A0020CC0A002085
:10533800C80A0020C40A0020C00A0020184B1A68B6
:10534800D1075CBF01221A60164B1A68D2075CBFEE
:1053580001221A60144B1A68D0075CBF01221A6038
:10536800124B1A68D1075CBF01221A60104B1A68E9
:10537800D2075CBF01221A600E4B1A68D0075CBFC7
:1053880001221A600C4B1A68D1075CBF01221A600F
:105398000A4B1A68D2075CBF01221A60704700BF27
:1053A8000C0B0020080B0020040B0020000B002031
:1053B800FC0A0020F80A0020F40A0020F00A002065
:1053C80008B5062000F0B6F8012000F0D3F8000078
:1053D80070B50E4B0E4CE41AA41000251E46A542CB
:1053E80004D056F8253098470135F8E700F0D6F88C
:1053F800084C094BE41AA41000251E46A54204D007
:1054080056F8253098470135F8E770BDEC5B000881
:10541800EC5B0008045C0008EC5B0008024B0146EA
:10542800186800F00FB800BF7401002010B5431EC3
:105438000A44914204D011F8014B03F8014FF8E7F0
:1054480010BD000038B50546002946D051F8043C87
:105458000C1F002BB8BFE41800F088F81F4A136827
:10546800114613B96360146032E0A3420ED9226872
:10547800A018834204BF18685B68636004BF1218F1
:1054880022600C6024E0A24203D813465A68002A1E
:10549800F9D118681918A1420BD12168014458188C
:1054A8008242196014D1106852685A600144196028
:1054B8000EE002D90C232B600AE0216860188242B2
:1054C80004BF10685268626004BF091821605C60FC
:1054D8002846BDE8384000F04AB838BD100B002017
:1054E8001F2938B504460D4604D9162303604FF02A
:1054F800FF3038BD426C12B152F821304BB920460A
:1055080000F032F82A4601462046BDE8384000F04F
:1055180019B8012B0CD0591C03D1162303600120A4
:1055280038BD0024284642F825409847204638BD13
:10553800002038BD024B01461868FFF7D1BF00BFF5
:105548007401002038B5074C00230546084611466B
:10555800236000F013F8431C02D1236803B12B60C9
:1055680038BD00BFD419002000F002B8704770475A
:10557800012070474FF0FF3100F000B8062930B520
:105588000CBF044D044D182420462946ABBE0446E2
:10559800204630BD2300020026000200F8B500BFF7
:1055A800F8BC08BC9E467047F8B500BFF8BC08BCFC
:0455B8009E46704754
:1055BC0000040240010000000004004008021D002D
:1055CC00080000000004024002000100000400403A
:1055DC000C021D0010000000000002400800030037
:1055EC0000400140040318000400000000000240C9
:1055FC00040002000000004008011C00080000002C
:10560C000000024002000100000C004004023200C5
:10561C00040000000000024001000000000C0040EB
:10562C0000023200020000000008024000020900E3
:10563C00000401400C032E00100000000008024082
:10564C00000108000004014008032E0008000000BF
:10565C0000080240800007000004014004032E00F3
:10566C000400000000080240400006000004014055
:10567C0000032E00020000000004024000800F0016
:10568C000018004004092B00040000000004024034
:10569C0000400E000018004000092B000200000022
:1056AC0000000240000108000000014000011B0046
:1056BC000200000000000000000000009D0800082F
:1056CC00E1080008E9080008010900087D08000845
:1056DC00F1080008C908000821090008CD090008D4
:1056EC008108000853544D33322056697274756129
:1056FC006C20436F6D506F727420696E204853207C
:10570C006D6F64650000000053544D3332205669B0
:10571C00727475616C20436F6D506F727420696E7A
:10572C00204653204D6F646500000000524F5366B5
:10573C006C69676874000000307838303030303075
:10574C003000000056435020436F6E6669670000BE
:10575C0056435020496E74657266616365000000A3
:10576C004E31305F5F637878616269763131355FD5
:10577C005F666F726365645F756E77696E64450012
:10578C00C85700086C5700084E31305F5F6378785B
:10579C00616269763131395F5F666F726569676E18
:1057AC005F657863657074696F6E4500C857000853
:1057BC009457000800000000EC5700085D4F0008EB
:1057CC00714F0008CB510008CB510008D34F000893
:1057DC001D4F0008834F00089B4F0008514F0008D5
:1057EC0024580008F85700087C5800084E31305FE8
:1057FC005F637878616269763131375F5F636C61C2
:10580C0073735F747970655F696E666F4500000035
:10581C000000000048580008C5500008D950000886
:10582C00CB510008CB510008D34F00081D4F000886
:10583C009F510008EB5000086751000824580008DD
:10584C0054580008EC5700084E31305F5F6378788D
:10585C00616269763132305F5F73695F636C61736B
:10586C00735F747970655F696E666F450000000048
:10587C00C857000884580008537439747970655FF0
:10588C00696E666F00000000000000000000000060
:10589C0000000000000000000000000000000000FC
:1058AC0000000000000000000000000000000000EC
:1058BC0000000000000000000000000000000000DC
:1058CC0000000000000000000000000000000000CC
:1058DC0000000000000000000000000000000000BC
:0858EC000000000000000000B4
:1058F40008B10181B0B000840000000008B101814A
:10590400B0B000840000000008B10181B0B0008490
:105914000000000008B10181B0B000840000000064
:1059240008B10181B0B000840000000008B1018119
:10593400B0B000840000000008B10181B0B0008460
:105944000000000081C90181008408B1000000004A
:1059540081EFFF7FB0A93400FFFF011904040000A8
:105964001204F803002804EA03004C9803F8030027
:10597400880404000000000059EFFF7FB0B0A800C5
:10598400FFFF010008B10181B0B0008400000000F5
:1059940008B10181B0B000840000000008B10181A9
:1059A400B0B000840000000008B10181B0B00084F0
:1059B4000000000008B10181B0B0008400000000C4
:1059C40011EFFF7FB0A90600FFFF01080A040000E1
:1059D40042040000FDEEFF7FA908B100FFFF0108AB
:1059E40010021C002804000008B10181B0B000843A
:1059F4000000000008B10181B0B000840000000084
:105A0400E0A7FF7FECFEFF7FF8A7FF7FB0B0A88080
:105A14001CA8FF7F0100000038A8FF7FB0A9028006
:105A2400D0A8FF7FB0B0A880D8A8FF7FD0FEFF7FAA
:105A3400DCA8FF7FD4FEFF7FE0A8FF7FD8FEFF7FB6
:105A4400E4A8FF7F01000000B8A9FF7FE0FEFF7F0C
:105A5400D8A9FF7FB0B0AA8070AAFF7F0100000020
:105A640044ABFF7FD4FEFF7F68ABFF7FD8FEFF7F90
:105A740094ABFF7F00840480BCABFF7FD4FEFF7F28
:105A8400E8ADFF7F01000000F4ADFF7FECFEFF7F77
:105A940008AEFF7FB0B0AA802CAEFF7F00840280E6
:105AA4003CAEFF7FE0FEFF7F3CAEFF7FE4FEFF7F66
:105AB4003CAEFF7FE8FEFF7F44AEFF7F00840280A0
:105AC4005CAEFF7FE4FEFF7F5CAEFF7FB0B0A880DA
